:020000040000FA
:100000000A128A11EF2FFF1B0D2883137F18831705
:100010000008840A0319FF0A080000308A00040857
:10002000840A820700340D34203455346E34613430
:1000300062346C346534203474346F342034753455
:1000400070346434613474346534203475347334FA
:1000500065347234203470346134733473347734DB
:100060006F3472346434203443346F346E347434F7
:1000700061346334743420347334753470347034C0
:100080006F347234743420340D3400340D34203421
:1000900055347334653472342034703461347334BD
:1000A000733477346F34723464342034753470347C
:1000B0006434613474346534643420347334753496
:1000C00063346334653473347334663475346C3438
:1000D0006C34793420340D3400340D342034413400
:1000E00075347434683465346E347434693463340C
:1000F0006134743469346F346E342034533475345D
:1001000063346334653473347334663475346C34F7
:100110002134213421340D3400340D342034413461
:1001200075347434683465346E34743469346334CB
:100130006134743469346F346E342034463461343D
:1001400069346C34653464342134213421340D3401
:1001500000340D34203445346E34743465347234D4
:1001600020344E3465347734203450346134733461
:10017000733477346F347234643420340D34003483
:100180000D34203445346E34743465347234203484
:10019000503461347334733477346F34723464346C
:1001A00020340D3400340D34203450346134733431
:1001B000733477346F34723464342034483469349F
:1001C0006E347434203400340D34203452346534A9
:1001D00073346534743420344D346F34643465348E
:1001E000203400343134323433343434353436341A
:0601F00000342A34003443
:100C4A00831203138C1E2A2E2B2E252E1A08080017
:100C5A0064008001840A04060319003404062E2E57
:100C6A0024308316031398009030831203139800DC
:100C7A0019308316031399000800F4007408F2006F
:100C8A007208F3004C2E0130F2007208F307730861
:100C9A00840083130008031D532E542E482E740813
:100CAA007302F000F101F01BF10308000A128A1125
:100CBA0035260A128A118312031348084904031DB0
:100CCA00672E682E6D2E0A128A117E270A128A1141
:100CDA00AE30F5008030F6000A128A1185260A1213
:100CEA008A1120300A128A11B7260A128A11203074
:100CFA000A128A111F270A128A110A128A11002857
:100D0A00F701F801A22E77087507840078080318FE
:100D1A00780A7607FF000A128A1103200A128A113A
:100D2A00990083160313981C9B2E9C2E962E013035
:100D3A00F7070318F80A0030F807770875078400E0
:100D4A0078080318780A760783120313FF000A1239
:100D5A008A1103200A128A11003A031DB52EB62EF3
:100D6A00882E0800FD00FB01FC010A128A112526C3
:100D7A000A128A11F9007B087D07FA007A088400B2
:100D8A007908831380007B087D07F90079088400BD
:100D9A000D300006031DD22ED32EDA2E7B087D07D6
:100DAA00F900790884008001EA2EE730F5008030E6
:100DBA00F6000A128A1185260A128A110130FB07E7
:100DCA000318FC0A0030FC07BA2E0800F600F72EBA
:100DDA000130F2007208F6070130F0070318F10A31
:100DEA000030F107710883120313FF0070088400B2
:100DFA000A128A1103200A128A11F2007608840064
:100E0A0083130008F30072087302F4007408F500F3
:100E1A007508031D112F122F192F76088400000858
:100E2A00031D182F192FED2E7508F000F101F01B84
:100E3A00F1030800FB00E030F9007908FA00C0303D
:100E4A00F0008030F100A0300A128A11EB260A1253
:100E5A008A1170087104031D332F342F5A2F7A0810
:100E6A00F0000030031D8030F1007B080A128A115D
:100E7A00EB260A128A1170087104031D452F462FAA
:100E8A00502F5B30F5008030F6000A128A11852651
:100E9A000A128A117D2F7B30F5008030F6000A1283
:100EAA008A1185260A128A117D2FA030F00000309F
:100EBA00F1007B080A128A11EB260A128A117008BD
:100ECA007104031D692F6A2F742F5B30F50080307F
:100EDA00F6000A128A1185260A128A117D2F7B30A2
:100EEA00F5008030F6000A128A1185260A128A1144
:100EFA000800A0300A128A1142260A128A117008C2
:100F0A007104031D892F8A2FC22F9730F500803074
:100F1A00F6000A128A1185260A128A11A0300A12CC
:100F2A008A11B7260A128A110030F0000030F10047
:100F3A00A0300A128A11EB260A128A11700871046B
:100F4A000319A82FA92FB92F013083120313C80040
:100F5A000030C9003430F5008030F6000A128A11D8
:100F6A0085260A128A11C22F0130F5008030F60058
:100F7A000A128A1185260A128A11D230F5008030A7
:100F8A00F6000A128A1185260A128A11831203139D
:100F9A004808F5004908F6000A128A1185260A123D
:100FAA008A11C130F5008030F6000A128A118526AE
:100FBA000A128A11A0300A128A1142260A128A11CA
:100FCA007008F5007108F6000A128A1185260A12BD
:100FDA008A11080083120313C801C9018313A030C0
:100FEA008400C8300A128A112D260A128A11830136
:060FFA000A128A115B2EB1
:02400E00FBFFB6
:00000001FF
