:020000040000FA
:100000000A128A11FC2F00308A000408840A820731
:08001000003452340D340034B9
:100F3E00F000700883120313990083160313981C94
:100F4E00A92FAA2FA42F080083160313940125306E
:100F5E0083120313940018308316031387000800BE
:100F6E00831203138C1DBC2FBD2FB72F1308F00057
:100F7E007008F1008C1171080800243083160313D9
:100F8E0098009030831203139800193083160313C0
:100F9E00990008000A128A11AB270A128A110A1246
:100FAE008A11C4270A128A1101300A128A119F2748
:100FBE000A128A110A128A11B7270A128A11F2002E
:100FCE007208F40074080A128A119F270A128A11F5
:100FDE003B30F3006F30F200F20BF32FF30BF32FD5
:100FEE00F82FE12F0A128A11002883010A128A11A2
:020FFE00D12FF1
:02400E003BFF76
:00000001FF
