:020000040000FA
:100000000A128A11F32F00308A000408840A82073A
:10001000003401340034103400340034013400342E
:1000200010343034313432343334343435343634BB
:100030003734383439346134623463346434653489
:1000400066340034253478343A34253478343A34FC
:0A005000253478340D340A340034EE
:100B300064008001840A0406031900340406992D18
:100B400083160313911483128C1DA72DA82DA32D9A
:100B50008C11080083160313111483128C1DB12D00
:100B6000B22DAD2D8C1108008316031311158312BD
:100B70008C1DBB2DBC2DB72D8C11080083160313C3
:100B80009112111683128C1DC62DC72DC22D8C11EA
:100B90000800831603139116111683128C1DD12D94
:100BA000D22DCD2D8C1108008316031391158312BD
:100BB0008C1DDB2DDC2DD72D8C1113080800F400C3
:100BC00074088312031393008C1DE72DE82DE42D88
:100BD0008C11031083160313111B03140030031828
:100BE0000130F200F3017208F0007308F100080010
:100BF000F400F201F3011A2E72087407F000700875
:100C00008400000883120313990083160313981CB1
:100C10000A2E0B2E052E8230F100DD30F000F00B95
:100C20000F2EF10B0F2E142E0130F2070318F30ACA
:100C30000030F30772087407F00070088400831313
:100C40000008031D242E252EFC2D0800F501F601B9
:100C50007008710403192D2E2E2E652EF701F70A48
:100C60003C2E01300310F00DF10DFF3E031D322E1E
:100C70000130F4007408F707F11F3F2E402E312E8B
:100C800001300310F50DF60DFF3E031D412E7108D6
:100C90007302031D4D2E70087202031C502E512E3C
:100CA000582E7008F2027108031CF303F302751446
:100CB00001300310F10CF00CFF3E031D592E0130E2
:100CC000F702031D642E652E402E7608F10075088C
:100CD000F000080083120313D8004C30F8007808A5
:100CE000D400172F253059060319772E782E842E1D
:100CF0005908F800580884007808831380000130F0
:100D0000F8007808D807172F0130CB07FF304B07C2
:100D100084000A128A1103200A128A11D900F800ED
:100D2000F9017908003A0319962E172F7808003A2E
:100D30000319292F783A03199E2E172F540884007F
:100D400083130008D500840A0008D6000230F8009A
:100D50007808D407D901D90A5908F8007807013E64
:100D600084000A128A1103200A128A11F9000A1259
:100D70008A1103200A128A11FA007A085602031D0A
:100D8000C32E790855020318C62EC72EC82ED22EA0
:100D90000130F8007808D90704305906031DD12E18
:100DA000D22EAC2E5908F8007808D7000E2F57081D
:100DB000F8007807013E84000A128A1103200A1203
:100DC0008A11F0000A128A1103200A128A11F10016
:100DD0005608F3005508F2000A128A1126260A1254
:100DE0008A1170080F39F900790883120313D300B0
:100DF0005308093E84000A128A1103200A128A113C
:100E0000F8007808D9005908F800580884007808D4
:100E1000831380000130F8007808D807FF30F8000D
:100E20007808D707570A031D162F172FD72E013022
:100E3000CB07FF304B0784000A128A1103200A12E5
:100E40008A11F8007808D9005908031D282F292F86
:100E5000722E580884008313800108002430831602
:100E600003139800903083120313980019308316EF
:100E700003139900871507168030940028308312D9
:100E80000313940009308316031393000A128A1186
:100E9000AA250A128A11D0300A128A11DF250A12F5
:100EA0008A11700371040319562F572F462F0030F3
:100EB0000A128A11DF250A128A1158300A128A1181
:100EC000DF250A128A1159300A128A11DF250A1207
:100ED0008A1106300A128A11DF250A128A110A12B3
:100EE0008A11B4250A128A110A128A11AA250A1235
:100EF0008A11D0300A128A11DF250A128A11700372
:100F000071040319842F852F742F00300A128A115F
:100F1000DF250A128A110A128A11A0250A128A11E3
:100F2000D1300A128A11DF250A128A110A128A1197
:100F3000D4250A128A1183120313DA005A08A20078
:100F40000A128A11BE250A128A110A128A11D425A0
:100F50000A128A1183120313DA005A08A1000A1236
:100F60008A11BE250A128A110A128A11D4250A1280
:100F70008A1183120313DA005A08A0000A128A1198
:100F8000C9250A128A110A128A11B4250A128A1175
:100F90001A3083120313DA005A08CB002008DB0052
:100FA000DC015B08CC005C08CD002108DD00DE011F
:100FB0005D08CE005E08CF002208DF00E0015F0878
:100FC000D0006008D10023300A128A116A260A1262
:100FD0008A1123300A128A11F8250A128A11742FF5
:100FE0000A128A1100288313203084004B300A1221
:100FF0008A1198250A128A1183010A128A112E2F4A
:02400E00FBFFB6
:00000001FF
