:020000040000FA
:100000000A128A11FC2F00308A000408840A820731
:100010000034483465346C346C346F34203400342C
:100E74008312031306152730F100F530F000F00B50
:100E8400412FF10B412F8312031306110800023086
:100E94000A128A11A4270A128A1128300A128A1106
:100EA400A4270A128A110C300A128A11A4270A12E2
:100EB4008A1106300A128A11A4270A128A1108001C
:100EC40083160313860187018312031386018701A6
:100ED4000A128A1149270A128A1180300A128A11C9
:100EE400A4270A128A1101300A128A117F270A12D2
:100EF4008A117B2F0A128A110028F700F501F601E6
:100F0400962F7508770784000A128A1103200A12A3
:100F14008A110A128A11D0270A128A110130F507A0
:100F24000318F60A0030F6077508770784000A12DA
:100F34008A1103200A128A11003A031DA22FA32F3B
:100F4400832F0800F4008312031306100F30F200FD
:100F5400720887057408F039F200720887040A12CF
:100F64008A113A270A128A110F30F200720883128A
:100F7400031387057408F20003300310F20DFF3EDB
:100F8400031DBF2F0310720DF039F300730887049B
:100F94000A128A113A270A128A110800F4008312ED
:100FA400031306140F30F200720887057408F03931
:100FB400F200720887040A128A113A270A128A1167
:100FC4000F30F20072088312031387057408F200CD
:100FD40003300310F20DFF3E031DEB2F0310720DBF
:100FE400F039F300730887040A128A113A270A12A7
:0C0FF4008A11080083010A128A11622F82
:02400E00FFFFB2
:00000001FF
