:020000040000FA
:060000000A128A11FC2F18
:100F58008316031386010130831203138600831658
:100F680003138501013083120313850083160313CD
:100F78008701013083120313870007308316031398
:100F88009F008312860101308700850101308600A9
:100F980001308700F201F3018312031385018601F2
:100FA8000708F000700787008230F100DD30F0009C
:100FB800F00BDC2FF10BDC2FE12F0130F2070318C7
:100FC800F30A0030F3077308803AFF0080307F028D
:100FD800031DF02F07307202031CF32FF42FD02FBC
:100FE8008030831203138700C52F0A128A11002844
:080FF80083010A128A11AC2FDB
:02400E0039FF78
:00000001FF
