:020000040000FA
:060000000A128A11FC2F18
:100F7A008316031387018312031387010715871149
:100F8A000630F2001330F100AD30F000F00BCB2F39
:100F9A00F10BCB2FF20BCB2FD22F83120313071196
:100FAA0087150630F2001330F100AD30F000F00B77
:100FBA00DC2FF10BDC2FF20BDC2FE32F8312031350
:100FCA00071587150630F2001330F100AD30F00036
:100FDA00F00BED2FF10BED2FF20BED2FF42F831207
:100FEA00031307118711C32F0A128A1100288301DC
:060FFA000A128A11BD2F4E
:02400E0039FF78
:00000001FF
