:020000040000FA
:100000000A128A11EE2F00308A000408840A82073F
:100010000034013400340A34003464340034E834E9
:100020000334103427340D34413444344334203401
:100030004334683461346E346E3465346C34203447
:10004000253464342034563461346C34753465346A
:0800500020342534643400342F
:100B380041340034493400345134003459340034D9
:100B480061340034243083160313980090308312E4
:100B5800031398001930831603139900FF3085009A
:100B680080309F00FF30860008007E088A007F08DA
:100B780082000A128A11B9250A128A118000840A91
:100B880004087D0603190034FF0A0319FE0ABD2D67
:100B9800203084005E30F2000408F3000A30F400CC
:100BA8007208840083130008F500F20A73088400B1
:100BB80075088000F30AF40BD42D7008F200720750
:100BC800203E84000008F000840A0008F1000800B4
:100BD800F300F101F201052E71087307F0007008A7
:100BE8008400000883120313990083160313981CCA
:100BF800FE2DFF2DF92D0130F1070318F20A003000
:100C0800F20771087307F000700884008313000866
:100C1800031D0F2E102EF02D0800780879040319F3
:100C2800162E172E462EFD01FD0A252E0130031023
:100C3800F80DF90DFF3E031D1B2E0130FC007C084A
:100C4800FD07F91F282E292E1A2E79087B02031D6D
:100C58002F2E78087A02031C322E332E392E78086C
:100C6800FA027908031CFB03FB0201300310F90C9C
:100C7800F80CFF3E031D3A2E0130FD02031D452EE0
:100C8800462E292E7B08F9007A08F8000800F5019D
:100C9800F601700871040319522E532E8A2EF7019B
:100CA800F70A612E01300310F00DF10DFF3E031D10
:100CB800572E0130F4007408F707F11F642E652ED3
:100CC800562E01300310F50DF60DFF3E031D662E5E
:100CD80071087302031D722E70087202031C752EB0
:100CE800762E7D2E7008F2027108031CF303F302BE
:100CF800751401300310F10CF00CFF3E031D7E2E1D
:100D08000130F702031D892E8A2E652E7608F10020
:100D18007508F000080083120313DC01DD010A12D4
:100D28008A11A6250A128A1183120313061C9D2E06
:100D38009E2EB92E0618A12EA22E9E2E02308312A8
:100D48000313B1000430B000B930AF00AF0BAA2EC6
:100D5800B00BAA2EB10BAA2EB12E013083120313A9
:100D6800DC070318DD0A0030DD07061CBC2EBD2E8B
:100D7800CE2E5D08803AFF0080307F02031DC62E0C
:100D880005305C02031CC92ECA2ECE2E8312031313
:100D9800DC01DD01831203135D08F1005C08F0003B
:100DA8000A128A11CC250A128A11700883120313B9
:100DB8009F001F151F19E12EE22EDE2E1E08DB00F4
:100DC800831603131E0883120313DA000B30AF00D7
:100DD8002F08A0005D08A2005C08A1005B08A40021
:100DE8005A08A30032300A128A1106270A128A11F9
:100DF80032300A128A11EC250A128A11982E0A1228
:100E08008A11002883120313AD002130A50025089C
:100E1800A800D72F25302E060319132F142F202FA3
:100E28002E08A5002D0884002508831380000130B2
:100E3800A5002508AD07D72FA9010130A007FF306D
:100E4800200784000A128A1103200A128A11AE00B0
:100E5800A500A6012608003A0319332FD72F250825
:100E6800003A0319E92F643A03193E2F0D3A031982
:100E78003E2FD72F2808840083130008AB00840A6C
:100E88000008AC000230A5002508A807AC1F4D2FAC
:100E98004E2F572F0330A5002508A904AB09AC092C
:100EA800AB0A0319AC0AAE01AE0A2E08A500250745
:100EB800013E84000A128A1103200A128A11A60030
:100EC8000A128A1103200A128A11A70027082C0285
:100ED800031D702F26082B020318732F742F752FEC
:100EE8007F2F0130A5002508AE0705302E06031D0B
:100EF8007E2F7F2F592F290803390319842F852F17
:100F0800902F2D30A5002D0884002508831380001C
:100F18000130A5002508AD072E08A5002508AA0060
:100F2800CE2F0A30F8000030F9002A08A50025075E
:100F3800013E84000A128A1103200A128A11F00065
:100F48000A128A1103200A128A11F1002C08F300F0
:100F58002B08F2000A128A114B260A128A1171080C
:100F6800FB007008FA000A128A1111260A128A1167
:100F78007808303E83120313A6002608AE002E0818
:100F8800A5002D0884002508831380000130A500E2
:100F98002508AD07FF30A5002508AA072A0A031D62
:100FA800D62FD72F952F0130A007FF3020078400B8
:100FB8000A128A1103200A128A11A5002508AE0018
:100FC8002E08031DE82FE92F0E2F2D088400831308
:100FD8008001080083136830FD000530FE009C3056
:100FE800FF005E3084000A128A11BD250A128A1198
:080FF80083010A128A118F2EF9
:02400E003BFF76
:00000001FF
