:020000040000FA
:060000000A128A11FC2F18
:100F38008316031394012030831203139400103096
:100F480083160313870008002430831603139800C0
:100F580090308312031398001930831603139900F5
:100F68000800F20072088312031393008C1DBD2F32
:100F7800BE2FBA2F8C113B30F1006F30F000F00B10
:100F8800C32FF10BC32FC82F0800831203138C1E25
:100F9800CE2FCF2FC92F1A08F0007008F100710862
:100FA800990083160313981CDA2FDB2FD52F7108AD
:100FB80008008312031387010A128A11A8270A124C
:100FC8008A110A128A119C270A128A110A128A1196
:100FD800C9270A128A11F3007308F40074080A1268
:100FE8008A11B5270A128A11EA2F0A128A110028D3
:080FF80083010A128A11DD2FAA
:02400E003BFF76
:00000001FF
