:020000040000FA
:060000000A128A11FC2F18
:100F4000FF3083160313850007309F00860183124C
:100F5000031386018316031387018312031387018A
:100F60000518B32FB42FC22F8518B72FB82FC22F53
:100F70000519BB2FBC2FC22F8519BF2FC02FC22F21
:100F8000061086100518C52FC62FD42F8518C92F17
:100F9000CA2FD42F0519CD2FCE2FD42F851DD12F99
:100FA000D22FD42F061486100518D72FD82FE62F4E
:100FB0008518DB2FDC2FE62F051DDF2FE02FE62F16
:100FC0008519E32FE42FE62F061086140518E92F64
:100FD000EA2FB02F8518ED2FEE2FB02F051DF12F22
:100FE000F22FB02F851DF52FF62FB02F0614861483
:100FF000B02F0A128A11002883010A128A11A02F29
:02400E00FFFFB2
:00000001FF
