:020000040000FA
:060000000A128A11FC2F18
:100F74000530831203138100F301F401CC2F0B1D00
:100F8400C42FC52FC12F0B110130F3070318F40A26
:100F94000030F4077408803AF2007108803A720253
:100FA400031DD62F70087302031CD92FDA2FC12F0B
:100FB400080083160313870183120313870101308A
:100FC4008316031381000530831203138100FF305D
:100FD400F5007508831203138706E830F000033028
:100FE400F1000A128A11BA270A128A11E92F0A1289
:0C0FF4008A11002883010A128A11DB2FE9
:02400E003BFF76
:00000001FF
