:020000040000FA
:100000000A128A11FC2FFF1B0D2883137F188317F8
:100010000008840A0319FF0A080000308A00040857
:10002000840A82070034483465346C346C346F348D
:10003000203477346F3472346C34643420340D34AB
:0200400000348A
:100EC000F2007208831203138700061086100A12BC
:100ED0008A116D270A128A1108008312031306155E
:100EE0002730F100F530F000F00B742FF10B742F68
:100EF000831203130611080038300A128A11602782
:100F00000A128A1106300A128A1160270A128A11FF
:100F10000C300A128A1160270A128A1180300A12D4
:100F20008A1160270A128A110800F401F501B32F13
:100F300074087207840075080318750A7307FF00A8
:100F40000A128A1103200A128A11870006148610D9
:100F50000A128A116D270A128A110130F407031848
:100F6000F50A0030F5077408720784007508031845
:100F7000750A730783120313FF000A128A110320F4
:100F80000A128A11003A031DC62FC72F982F080096
:100F900083160313860187018312031386018701D9
:100FA0000A128A117C270A128A11F801F90101300C
:100FB000F2008030F3000A128A1195270A128A1172
:100FC0007808F2007908F3000A128A1195270A12AC
:100FD0008A110130F8070318F90A0030F9070D30BB
:100FE000F700FB30F600F60BF32FF70BF32FF82F7B
:100FF000D72F0A128A11002883010A128A11C82FDA
:02400E003B3F36
:00000001FF
