:020000040000FA
:100000000A128A11FC2FFF1B0D2883137F188317F8
:100010000008840A0319FF0A080000308A00040857
:10002000840A82070034013400340A340034643412
:100030000034E83403341034273441344434433436
:10004000203430342034563461346C3475346534A3
:10005000203425346434003441344434433420346F
:1000600032342034563461346C3475346534203481
:0A0070002534643400340D340034EC
:100B8E0024308316031398009030831203139800B9
:100B9E0019308316031399000514851480309F00B5
:100BAE004130831203139F0008007808790403195B
:100BBE00E12DE22D112EFD01FD0AF02D0130031065
:100BCE00F80DF90DFF3E031DE62D0130FC007C08EB
:100BDE00FD07F91FF32DF42DE52D79087B02031D7A
:100BEE00FA2D78087A02031CFD2DFE2D042E7808AE
:100BFE00FA027908031CFB03FB0201300310F90C07
:100C0E00F80CFF3E031D052E0130FD02031D102EB4
:100C1E00112EF42D7B08F9007A08F8000800F50172
:100C2E00F6013D2E75087007F3007108F2000318E7
:100C3E00F20AF51F232EF2037208F40074088312D1
:100C4E000313FF00730884000A128A1103200A128C
:100C5E008A11990083160313981C362E372E312EC7
:100C6E000130F5070318F60A0030F607750870070D
:100C7E00F3007108F2000318F20AF51F472EF20373
:100C8E007208F400740883120313FF0073088400C3
:100C9E000A128A1103200A128A11003A031D582ED5
:100CAE00592E192E0800F501F6017008710403196A
:100CBE00612E622E992EF701F70A702E0130031065
:100CCE00F00DF10DFF3E031D662E0130F400740889
:100CDE00F707F11F732E742E652E01300310F50DDC
:100CEE00F60DFF3E031D752E71087302031D812E36
:100CFE0070087202031C842E852E8C2E7008F20250
:100D0E007108031CF303F302751401300310F10C88
:100D1E00F00CFF3E031D8D2E0130F702031D982EA1
:100D2E00992E742E7608F1007508F00008000A124C
:100D3E008A11C7250A128A114130831203139F00AC
:100D4E001F151F19AB2EAC2EA82E1E08D800831609
:100D5E0003131E0883120313D7000B30AD002D08AA
:100D6E00A0005808A2005708A1002F300A128A11BD
:100D7E0014270A128A112930F0008030F1000A126D
:100D8E008A1116260A128A112F30F0000030F10057
:100D9E000A128A1116260A128A1127308312031399
:100DAE00AE00F430AD00AD0BDA2EAE0BDA2E000035
:100DBE005130831203139F001F151F19E72EE82EC3
:100DCE00E42E1E08D800831603131E088312031385
:100DDE00D7001A30AD002D08A0005808A200570801
:100DEE00A1002F300A128A1114270A128A112930F3
:100DFE00F0008030F1000A128A1116260A128A11AA
:100E0E002F30F0000030F1000A128A1116260A1255
:100E1E008A11A32E0A128A11002883120313AB0023
:100E2E002130A3002308A600E52F25302C06031938
:100E3E00212F222F2E2F2C08A3002B0884002308ED
:100E4E00831380000130A3002308AB07E52FA70111
:100E5E000130A007FF30200784000A128A110D20EE
:100E6E000A128A11AC00A300A4012408003A031947
:100E7E00412FE52F2308003A0319F72F643A03197F
:100E8E004C2F0D3A03194C2FE52F2608840083139F
:100E9E000008A900840A0008AA000230A300230853
:100EAE00A607AA1F5B2F5C2F652F0330A300230814
:100EBE00A704A909AA09A90A0319AA0AAC01AC0A2E
:100ECE002C08A3002307013E84000A128A110D206C
:100EDE000A128A11A4000A128A110D200A128A110E
:100EEE00A50025082A02031D7E2F240829020318B7
:100EFE00812F822F832F8D2F0130A3002308AC0763
:100F0E0005302C06031D8C2F8D2F672F27080339D4
:100F1E000319922F932F9E2F2D30A3002B088400A0
:100F2E002308831380000130A3002308AB072C088D
:100F3E00A3002308A800DC2F0A30F8000030F900C7
:100F4E002808A3002307013E84000A128A110D20EF
:100F5E000A128A11F0000A128A110D200A128A1141
:100F6E00F1002A08F3002908F2000A128A115A2603
:100F7E000A128A117108FB007008FA000A128A110F
:100F8E00DC250A128A117808303E83120313A4005E
:100F9E002408AC002C08A3002B088400230883131C
:100FAE0080000130A3002308AB07FF30A300230805
:100FBE00A807280A031DE42FE52FA32F0130A00751
:100FCE00FF30200784000A128A110D200A128A119E
:100FDE00A3002308AC002C08031DF62FF72F1C2F9F
:100FEE002B08840083138001080083010A128A11E2
:020FFE009E2E25
:02400E003BFF76
:00000001FF
