:020000040000FA
:100000000A128A11F82FFF1B0D2883137F188317FC
:100010000008840A0319FF0A080000308A00040857
:10002000840A820700340D34203445346E3474342D
:1000300065347234203479346F347534723420343A
:1000400073346934783420346334683461347234FE
:100050006134633474346534723420347034613400
:100060007334733477346F34723464342E342E34F2
:100070002E340D3400340D3420344134753474344E
:10008000683465346E347434693463346134743480
:1000900069346F346E3420344634613469346C34DE
:1000A00075347234653421342134213420340D34D4
:1000B00000340D34413475347434683465346E342E
:1000C0007434693463346134743469346F346E3435
:1000D0002034533475346334633465347334733487
:1000E000663475346C340D34003431343234333486
:0C00F00034343534363400342A34003403
:100D4600831203138C1EA82EA92EA32E1A08F000B8
:100D56007008F10071080800253083160313980007
:100D660090308312031398001830831603139900EA
:100D76000130F4008030F5000A128A118C270A121D
:100D86008A1123300A128A1124270A128A110A129A
:100D96008A1100287008F2007108F300D82E01307D
:100DA600F2070318F30A0030F307730883120313DC
:100DB600FF00720884000A128A1103200A128A119F
:100DC600003A031DE72EE82ED22E70087202F000BC
:100DD6007108031C710A7302F1000800F600FB2E6D
:100DE6000130F2007208F6070130F2007208F007CF
:100DF6007008840083130008F200760884000A1243
:100E06008A110D200A128A11F30072087302F40087
:100E16007408F5007508031D112F122F1E2F760872
:100E260084000A128A110D200A128A11003A031D43
:100E36001D2F1E2FF32E7508F000F101F01BF10394
:100E4600080083120313A200A001A1010A128A114D
:100E5600A3260A128A11FB00831203132008220715
:100E6600FC007C0884007B0883138000200822078E
:100E7600FB007B0884000D300006031D432F442F22
:100E86004B2F20082207FB007B08840080015D2F82
:100E96006A30F4008030F5000A128A118C270A1293
:100EA6008A11013083120313A0070318A10A003028
:100EB600A107292F2208F4000030F5000A128A1132
:100EC6008C270A128A11831203132208FB007B085F
:100ED600F00063300A128A11F1260A128A1170088C
:100EE60071040319772F782F822F4730F400803052
:100EF600F5000A128A118C270A128A118B2F2930C3
:100F0600F4008030F5000A128A118C270A128A1121
:100F16000800831203134B084C04031D932F942FD0
:100F2600F72FF901FA01DB2F79087407F700750826
:100F3600F6000318F60AF91FA12FF6037608F80043
:100F4600780883120313FF00770884000A128A11B7
:100F560003200A128A11990083160313981CB42FD2
:100F6600B52FAF2F7408F0007508F1000A128A1128
:100F7600CD260A128A117A087106031DC42F790834
:100F86007006031DC72FC82FD52F013083120313F8
:100F9600CB000030CC0083160313981CD32FD42F1C
:100FA600CE2FF72F0130F9070318FA0A0030FA0797
:100FB60079087407F7007508F6000318F60AF91F92
:100FC600E52FF6037608F800780883120313FF006E
:100FD600770884000A128A1103200A128A11003A3D
:100FE600031DF62FF72F972F080083120313CB014B
:0A0FF600CC0183010A128A11AF2E0C
:02400E00FB3F76
:00000001FF
