:020000040000FA
:100000000A128A11FC2F00308A000408840A820731
:1000100000340D34203445346E3474346534723415
:1000200020346134203473347434723469346E345F
:08003000673420340034003471
:100F840024308316031398009030831203139800BF
:100F9400193083160313990001300A128A11D727D6
:100FA4000A128A110A128A110028F400F201F301CC
:100FB4007208740784000A128A1103200A128A1123
:100FC40083120313990083160313981CEA2FEB2F43
:100FD400E52F8230F100DD30F000F00BEF2FF10B44
:100FE400EF2FF42F0130F2070318F30A0030F30750
:0C0FF400DA2F080083010A128A11C22FB4
:02400E00FFFFB2
:00000001FF
